S01700006F70656E6470735F445053353030352E7372656304
S31508001400F01F0020756A0008736A0008716A0008F0
S31508001410716A0008716A0008716A00080000000015
S31508001420000000000000000000000000736A0008C9
S31508001430736A000800000000736A00089535000802
S31508001440716A0008716A0008716A0008716A000802
S31508001450716A0008716A0008716A00088D2A000816
S31508001460A12900081D2A0008FD2A0008716A00083B
S31508001470716A0008716A0008A93C0008E93C00087E
S31508001480716A0008716A00081D280008716A000858
S31508001490716A0008716A0008716A0008312B000831
S315080014A0716A0008716A0008716A0008716A0008A2
S315080014B0716A0008716A0008716A0008716A000892
S315080014C0716A0008716A0008716A0008716A000882
S315080014D0716A000871290008716A0008716A0008B3
S315080014E0716A0008716A0008716A0008716A000862
S315080014F0716A0008716A0008716A0008716A000852
S31508001500716A0008716A0008716A0008716A000841
S31508001510716A0008716A0008716A0008716A000831
S31508001520716A0008716A0008716A0008716A000821
S31508001530716A0008716A0008716A0008716A000811
S31508001540716A0008716A0008716A0008716A000801
S31508001550034A1368013B13600BB905F06FBA70476D
S31508001560980B002010B5044C23680BB905F056FA01
S3150800157023680133236010BD980B002010B5054B76
S31508001580054CC4E90030A16020460C2100F012F891
S31508001590E06010BDE1FF1AFAF01F002081EA102171
S315080015A081EA111141EA002080EA013080EA4110FF
S315080015B080B2704730B50446A0B1A1B105460020F7
S315080015C015F8012B82EA102282EA121242EA002357
S315080015D083EA023383EA421398B24B1B23449BB235
S315080015E0002BEDD130BD0846FCE700B9FEE783784D
S315080015F003B9FEE70123C3700371704700B9FEE71C
S31508001600837803B9FEE70023C3700123037170478B
S31508001610C2780AB1436918470369FCE700B9FEE7CF
S31508001620002303800123C1618370704738B50C46D7
S31508001630054600B9FEE701B9FEE78B6F0BB1C06935
S3150800164098472B78052B0ED85A1C2A7005EB83056C
S3150800165000236C600125607EA376237604F1800260
S31508001660D9B2884200D838BD52F8041F0133CC607D
S315080016700D71F5E72DE9F3410F4600B9FEE743780A
S3150800168000EB83004468FCB9FEE704EB8303D3F858
S3150800169084600FB9337933B1336A03B9FEE730464C
S315080016A0984786F804800135627EEBB29A42ECD8F8
S315080016B06269C2F18003009321692B23A06801F0B7
S315080016C0EBFF02B0BDE8F0810025A846ECE737B588
S315080016D000B9FEE7037803B9FEE7437800EB830316
S315080016E05C680023617E04F180028B4204D252F8C2
S315080016F0045FAD7895B1A3760121FFF7BBFF626958
S31508001700C2F18003009321692B23A06801F0C4FF6E
S31508001710636E2BB103B0BDE8304018470133E4E7E8
S3150800172003B030BD7FB5037804468B4200D8FEE788
S31508001730437800EB83035D6805B9FEE7AB7E05EBEE
S315080017408303D3F8846006B9FEE7417000EB810194
S315080017504B6803B9FEE79D421FD0002002F0F4FF54
S315080017602B7E23B1EB6E0020984700232B76F37867
S3150800177013B13046736998472046FFF7A8FF4FF61E
S31508001780FF7300201422CDE9023040230449CDE935
S3150800179000329A231E2202F0C7F804B070BD00BFBB
S315080017A05C77000870B506780446012E10D945788E
S315080017B000EB85035B689B6E03B198470135B5FB63
S315080017C0F6F1204606FB1151BDE87040FFF7AABFA7
S315080017D070BD38B543780446027873B15D1E012A98
S315080017E00DD904EB83035B689B6E03B198472946C2
S315080017F02046BDE83840FFF795BF551EEFE738BDD0
S31508001800024670B500B9FEE7437800EB83035C68CF
S3150800181004B9FEE7A37E04EB8300D0F8840000B980
S31508001820FEE79578002D5ED04D1E0C2D08D8DFE812
S3150800183005F020360719471212080D120747470008
S31508001840FEE71046BDE87040FFF7C3BF1046BDE887
S315080018507040FFF7A7BFC378002B44D0BDE870409F
S31508001860836918478378002B3DD0BDE87040FFF7A1
S31508001870CFBEC278002A36D07BB1013BDBB204EB7F
S315080018808302D2F88450AA78002AF5D08542A37636
S3150800189029D0FFF7BDFE2846E7E7637EEDE7C27865
S315080018A00AB3617E5A1CB2FBF1F301FB1322D3B2D1
S315080018B004EB8202D2F88450AA78002AF2D0E5E72F
S315080018C0E36E83B1237E83F0010323761BB1636F36
S315080018D00BB1D0699847207EE36E9847207EBDE815
S315080018E0704002F031BF70BD0023C370024B036124
S315080018F0024B4361704700BFEB150008FD15000851
S31508001900437800EB830043681B6F1847437800EB66
S3150800191083004368DA6E22B1197E11B10020187669
S315080019201047704700B9FEE707291ED00A2932D0AA
S3150800193006293FD190F92B3090F82D205B429B1A4F
S3150800194090F82E200A2113440122013B0BD2036B87
S315080019509B1A426B9342B8BF134603630123037174
S31508001960C36B43B318474A43EFE790F92B2090F827
S315080019702D305242D21A90F82E300A211A440123E9
S31508001980013A06D2026B1344826B9342A8BF1346F0
S31508001990E3E74B43F4E790F82E3023B990F82C3060
S315080019A090F82D201344013BDBB280F82E3001233A
S315080019B003717047FEE7704700B9FEE7006B704792
S315080019C02DE9F04F90F8283004468DB0032B00F22D
S315080019D08481DFE803F00229333D90F82A204FF08E
S315080019E00108002A3ED04FF0060A0C250722574662
S315080019F00492E28894F829100692E28C012905924D
S31508001A0094F82C20079263D1022B94F82A2047D009
S31508001A10032B62D0012B3ED00B46002A63D04FF031
S31508001A20060C0720062240E090F82A204FF001080D
S31508001A30F2B14FF0060A0C250922D8E790F82A20B9
S31508001A404FF00208CAB14FF0090A11250C22CEE759
S31508001A5090F82A204FF00408B2B14FF0110A232556
S31508001A601622C4E7C2460C25072206270492C0E7B9
S31508001A704FF0020A0C250922F7E70C224FF0030A59
S31508001A80112509270492B4E716224FF0050A2325E3
S31508001A9011270492ADE742B34FF0060C0920C1E7BF
S31508001AA032B34FF0090C0C206246079994F82D6062
S31508001AB01A4451430EB16344194494F8243002FB86
S31508001AC00611022B1ED803B10144069B5B1A069326
S31508001AD07B1C0893DDE906B969E004236AB14FF077
S31508001AE0110C1620E0E78C469BE74FF0020CD5E771
S31508001AF04FF0030C0C200922D7E74FF0050C1620EF
S31508001B001122D2E7052B00D0FEE70E31DDE70126CC
S31508001B1009F1FF330B9394F92B3009F1FF32D31AED
S31508001B20013B76D2236B0A2093FBF6F393FBF0F284
S31508001B3000FB1233E278DBB2099352B194F82E30E7
S31508001B4009EB0102013AA2EB030CDCF1000242EBBD
S31508001B500C02B8F1010F0A920BD021890BF1FF3064
S31508001B6001396B1C0AB14FF6FF720092089A01F010
S31508001B706DFF236B2189B34205DAB9F1010F02D053
S31508001B80E378002B48D00A9B09980393059B3030CD
S31508001B90CDE9015300970B465A46C1B294F828007E
S31508001BA001F05CFE07EB0803DDF82C909B4494F8E3
S31508001BB02D10B9F1000FAAD107EB080307EB0800AF
S31508001BC00893DDE9063200FB023679B1059BCDF8AC
S31508001BD000A0CDE90153CDF80C9032462E21238979
S31508001BE094F8280001F03AFEC24456444FF00A0B16
S31508001BF094F82D30013B079394F82D304B4512D8B5
S31508001C0094F82430052B59D8DFE803F0676A595849
S31508001C1058750A22564383E700933A462B46584698
S31508001C2001F0D2FDBEE7E378002B42D0079BA3EB79
S31508001C30090C94F82E30ACEB0300D0F1000C4CEBF9
S31508001C40000C94F92B300122DB43216BCDF818C028
S31508001C50A3EB0903013B2ED2B1FBF2FABAFBFBF365
S31508001C600BFB13AAB8F1010F5FFA8AFA0DD0218986
S31508001C707A1C6B1C701E0139BCF1000F01D04FF69F
S31508001C80FF7CCDF800C001F0E1FE069B00970393A8
S31508001C90059B0AF13001CDE901533246238994F8B0
S31508001CA02800C9B201F0DAFD089B09F101091E44B2
S31508001CB0A2E79C46C5E70BFB02F2CBE7FEE700234B
S31508001CC0324656210393059BCDE90153049B0093A5
S31508001CD0238994F8280001F0C1FD0DB0BDE8F08F06
S31508001CE000230393059B3246CDE90153049B41210A
S31508001CF000932389EDE7059A23890C210292002097
S31508001D000E220390CDE900212B443246014901F009
S31508001D100BFEE2E76877000810B5044600B9FEE74F
S31508001D20FFF7E2FD084B94F82D20A361074BE3610A
S31508001D30074B236294F82C301344013B84F82E3069
S31508001D400123237110BD00BF25190008B919000821
S31508001D50C11900087047000070B506460C460146D2
S31508001D600B48154604F0E2FF40B90A4B29462046BF
S31508001D701B6B094A02F0FFFA002070BD314607487E
S31508001D8004F0D4FF08B9064BF0E70120F5E700BFD9
S31508001D906B770008E802002071770008747700085E
S31508001DA0A802002007B50DF106020DF1020001A9EF
S31508001DB000F0A2FC0E48BDF80430026B934202D034
S31508001DC00363036A98470B48BDF80630026B9342D3
S31508001DD002D00363036A98470748BDF80230026BCE
S31508001DE0934202D00363036A984703B05DF804FB85
S31508001DF06802002028020020E8010020F0B500242F
S31508001E004FF6FF774025142685B01623062220466E
S31508001E10CDE90274CDE900561B4901F085FD28235A
S31508001E2006222046CDE90274CDE90056174901F08D
S31508001E307BFD3A2306222046CDE90274CDE90056F9
S31508001E40134901F071FD4C2306222046CDE90274A0
S31508001E50CDE900560F4901F067FD5E2306222046AC
S31508001E60CDE90274CDE900560B4901F05DFD9A23D0
S31508001E701E222046CDE90274CDE90056074901F035
S31508001E8053FD05B0F0BD00BF7A77000884770008D7
S31508001E908E77000897770008A17700085C77000816
S31508001EA008B5A0B14FF6FF7000F0B6FF4FF6FF7009
S31508001EB000F082FF012000F0FDFF074B188E00F0AE
S31508001EC02BFC064B188EBDE8084000F031BCBDE877
S31508001ED0084000F0EFBF00BFE8020020A80200207B
S31508001EE0034B1B7E13B1008E00F022BC704700BF67
S31508001EF050010020034B1B7E13B1008E00F00CBC72
S31508001F00704700BF5001002038B50546084604F062
S31508001F1043FE29460446124804F008FF58B91148FA
S31508001F20436BA34219DC836BA34216DB0463FFF7FA
S31508001F30E1FF002038BD29460B4804F0F7FE50B9EA
S31508001F400A48436BA34208DC836BA34205DB0463A0
S31508001F50FFF7C6FFEDE70120ECE70220EAE700BF3E
S31508001F606B770008E802002074770008A8020020B2
S31508001F707047000010B504460A48FFF7CDFE0A4828
S31508001F80FFF7CAFE0948FFF7C7FE0948FFF7C4FE70
S31508001F900848FFF7C1FE2046BDE810400649FFF78E
S31508001FA045BB00BFE8020020A80200206802002006
S31508001FB028020020E801002050010020002230B548
S31508001FC000240025044B054918780A700449C1E91C
S31508001FD000451A7030BD00BFBD0B0020C80B00209D
S31508001FE0C00B00202DE9184801F0C4FA094C024636
S31508001FF0D4E900BCB0EB0B000B4661EB0C011E28C4
S3150800200071F1000104D30020C4E90023BDE8188853
S315080020100120FBE7D00B0020F7B59DF820509DF86E
S31508002020244041EA453141EA033141EAC23244EAF1
S31508002030400444F04004C2F307231A488DF80440CC
S315080020408DF805308DF8062004F0E1FA164CD4F820
S315080020501434D4F818241340DA07F8D5002260217E
S31508002060104804F0F9FAD4F814349B07FBD5D4F8D1
S31508002070183403240B4F0C4E01AD384615F8011BD6
S3150800208004F0DBFAD6F8143413F0840FFAD0013CC6
S3150800209014F0FF04F1D1034803B0BDE8F04004F0A2
S315080020A0BBBA00BF0054004000500040002310B5E2
S315080020B0DB49DC4ADC48521A22F003029A4240F015
S315080020C001834FF0E023C3F8081D04F0C5F940F278
S315080020D0023004F0EAFB40F2033004F0E6FB4FF46A
S315080020E0417004F0E2FB40F2053004F0DEFB4FF4E9
S315080020F0407004F0DAFB01F024FA012303211A46A2
S31508002100CA4804F0CFF8022300211A46C74804F04B
S31508002110C9F80221C54804F068FA042302220021FE
S31508002120C24804F0BFF80421C04804F05EFA082348
S3150800213002220021BD4804F0B5F80821BB4804F086
S3150800214054FA002210231146B84804F0ABF80022CE
S3150800215020231146B54804F0A5F84FF480730022F1
S315080021600321B24804F09EF84FF4006301220021CF
S31508002170AE4804F097F84FF4805301220021AB488B
S3150800218004F090F84FF4005302220021A74804F007
S3150800219089F84FF40051A54804F029FA4FF4804312
S315080021A002220021A14804F07DF84FF480419F489F
S315080021B004F01BFA4FF40043012203219B4804F064
S315080021C071F8002201231146994804F06BF80022A1
S315080021D002231146964804F065F8042301220021DB
S315080021E0934804F05FF8082301220321904804F07D
S315080021F059F81023022200218D4804F053F81021C3
S315080022008B4804F0F2F9202302220021884804F0C2
S3150800221049F82021864804F0E8F94FF48073022231
S315080022200021834804F03EF84FF48071804804F09A
S31508002230DCF94FF40073022200217D4804F032F8DD
S315080022404FF400717A4804F0D0F94FF48063012204
S315080022500021774804F026F84FF400630022032192
S31508002260734804F01FF84FF4805300220321704886
S3150800227004F018F84FF480516D4804F0B6F94FF49D
S315080022800053022203216A4804F00CF84FF48043F5
S3150800229000220321664804F005F84FF400430222A1
S315080022A00321634803F0FEFF012300211A46614813
S315080022B003F0F8FF0223012200215E4803F0F2FF33
S315080022C00423012200215B4803F0ECFF08230122C6
S315080022D00021584803F0E6FF102301220021554843
S315080022E003F0E0FF202301220021524803F0DAFF21
S315080022F04023012200214F4803F0D4FF8023012206
S3150800230000214C4803F0CEFF4FF4807301220021D0
S31508002310484803F0C7FF4FF40073012200214548DF
S3150800232003F0C0FF4FF4806301220021414803F007
S31508002330B9FF4FF40063012200213E4803F0B2FFC3
S315080023404FF48053012200213A4803F0ABFF4FF4C3
S31508002350804301220021374803F0A4FF4FF40043CD
S3150800236001220021334803F09DFF012300211A466C
S31508002370314803F097FF0223002203212E4803F079
S3150800238091FF0423012200212B4803F08BFF082329
S3150800239001220021284803F085FF1023012200218D
S315080023A0254803F07FFF202301220021224803F05D
S315080023B079FF4023012200211F4803F073FF802381
S315080023C0012200211C4803F06DFF4FF4807301229F
S315080023D00021194803F066FF4FF40073012200211B
S315080023E0154803F05FFF4FF480630122002112486D
S315080023F003F058FF4FF40063012200210E4803F052
S3150800240051FF4FF48053012200210B4803F04AFF85
S315080024104FF4005301220021074803F043FF0DE063
S3150800242000000020500100200014000800080140A8
S31508002430000C014000100140001401404FF4804395
S3150800244001220021A14803F02DFF4FF40043012289
S3150800245000219E4803F026FF40F20E3004F025FACC
S315080024604FF4007302220321994803F01BFF4FF42F
S31508002470806301220021964803F014FF252004F00A
S315080024806FFB4FF41651934804F0BEF908219148A2
S3150800249004F0CEF900218F4804F0D3F90C218D48B9
S315080024A004F0DBF900218B4804F0D1F900218948B2
S315080024B004F0D9F9884A8748D2F80C38874C43F093
S315080024C02003C2F80C3804F0D4F90021122004F0D5
S315080024D053FB122004F044FB40F2093004F0E5F9FE
S315080024E07F4803F017FE7E4803F019FE7C4803F088
S315080024F036FE4FF400517A4803F0D0FD784803F0D1
S3150800250013FE774803F015FE0321754803F0EDFD29
S315080025100321744A724803F027FE714803F0B6FD9A
S3150800252000BF013CFCD16E4803F0C2FD6C4803F0C5
S31508002530D2FD4FF4607004F0B8F94FF4E07004F07F
S31508002540C1F92346224621464FF0804004F037F968
S31508002550FF214FF0804004F054F908214FF08040E5
S3150800256004F04DF921464FF0804004F031F920215E
S315080025704FF0804004F03BF94FF0804004F032F908
S315080025801122594BDA601A6101F09EFA40F2953031
S3150800259004F08BF94FF4407004F087F90322C02346
S315080025A01146524803F07EFE514804F02BF82421C8
S315080025B04F4804F03BF84E4804F041F81E214C48B9
S315080025C004F042F80B214A4804F044F832214848FE
S315080025D004F027F8464804F010F840F29D3004F05D
S315080025E064F94FF00312434B0820C3F80044C3F8BC
S315080025F00444C3F80844C3F81444C3F8002404F098
S31508002600AFFA0420324904F0AFF90121042004F09E
S315080026106BF9042004F08CF9092004F0A1FA0820CB
S315080026202B4904F0A1F90121082004F05DF90820DE
S3150800263004F07EF9072004F093FA0220244904F0F6
S3150800264093F90121022004F04FF9022004F070F9F1
S315080026500A2004F085FA1020244904F085F901219E
S31508002660102004F041F9102004F062F9172004F054
S3150800267077FA4FF480701D4904F076F902214FF479
S31508002680807004F031F94FF4807004F051F94FF47A
S315080026900070164904F068F902214FF4007004F03E
S315080026A023F94FF4007004F043F920200F4904F091
S315080026B05BF92020012104F017F9BDE8104020201D
S315080026C004F036B9C458CC500433F7E4001401407A
S315080026D000080140003801400030014000350C0078
S315080026E0002401405978000800000140000C014010
S315080026F00054004000700040044B1B880380044BC4
S315080027001B880B80034B1B8813807047E00B002047
S31508002710DC0B0020DA0B002007B501230146002058
S315080027201A46CDE90000FFF777FC03B05DF804FB15
S31508002730002307B5CDE90033012301461A4618469A
S31508002740FFF76AFC03B05DF804FB10B5044640F2D7
S31508002750823004F0AAF84FF080430122C3F82428F7
S315080027600522C3F828281022C3F820284FF4D0429F
S31508002770C3F8182848F6DF32C3F82C2840F2471267
S3150800278054438122C3F83848C3F84C28D3F80028A4
S3150800279042F08102C3F8002810BD40F2471358439F
S315080027A04FF08043C3F8380870474FF08043D3F89A
S315080027B0380840F24713B0FBF3F0C0B27047000088
S315080027C010B50D4C2378B3B100F0D4FE0B4BD3E90A
S315080027D00023801A61EB030140F2E933984271F154
S315080027E0000108D30121207800F076FC0122044B71
S315080027F01A700023237010BDC80B0020C00B0020E0
S31508002800BD0B0020042108B5034803F0F3FEB0FA17
S3150800281080F0400908BD00BF00080140434A38B5AA
S31508002820D2F80034424C23F00403C2F8003423687B
S31508002830012101333F48236003F080FC3E4A1378A8
S315080028403BB125683D49B5F57A7F0B685BD20344F1
S315080028500B603B4B1B681BB32268272A20D9394AD1
S3150800286012681044834285B218D200F0E3F9A8B181
S31508002870354923680A68354801329A424ED10368B9
S315080028800A600133142B036008D1314B00201D80E8
S3150800289000F010FB00210C2000F01EFC2D4B1D80C3
S315080028A00221244803F04AFC2B4B80B218800321EE
S315080028B0204803F043FC294B294D1A6880B228802A
S315080028C0002A32D02B889BB29A422ED200F0B2F957
S315080028D058B3244923680A682D8801329A42224847
S315080028E0ADB21FD103680A600133142B03601CD1F3
S315080028F01E4B00201D8000F0DDFABDE8384000219F
S315080029000D2000F0E9BB4FF47A71B3FBF1F30D49E2
S31508002910C3F145030B60002313709AE700220B608E
S315080029200260BBE700220B60026038BD0020014050
S31508002930B40B0020002401402D030020AC0B00201E
S31508002940E80B0020B00B0020A80B0020A40B0020E9
S31508002950DE0B0020E00B0020DC0B0020E40B00203F
S31508002960DA0B0020A00B00209C0B0020D80B0020BF
S3150800297008B5094BD3F80C2892060CD5D3F80038BD
S315080029809B0608D5054803F088FFBDE80840C1B294
S315080029900B2000F0A1BB08BD003001400038014003
S315080029A070B5184D042003F0D1FF2B78DBB1FFF783
S315080029B019FB0446B0B901220426134B1A70134BAF
S315080029C01870134B1E70134B187000F0D3FD124B82
S315080029D0C3E900012146042003F086FF2B7883F023
S315080029E001032B7070BD084A1370084B1B7833B966
S315080029F0FFF7E4FA014610B9042000F06DFB012147
S31508002A00E9E700BF2C030020BC0B0020BB0B00200D
S31508002A10C80B0020BD0B0020C00B002010B5174CBA
S31508002A20082003F093FF23789BB1FFF7DBFA78B908
S31508002A300123134A1370134A12780AB1124A137003
S31508002A400021082003F050FF237883F00103237048
S31508002A5010BD0B4A13700B4B1A7802F0FF034AB9E4
S31508002A60094A107800F0FF0130B1194603201370A7
S31508002A7000F032FB0121E4E70120F9E72B030020EF
S31508002A80BA0B0020B90B0020B80B002010B5174C64
S31508002A90022003F05BFF23789BB1FFF7A3FA78B90E
S31508002AA00123134A1370134A12780AB1124A137093
S31508002AB00021022003F018FF237883F00103237016
S31508002AC010BD0B4A13700B4B1A7802F0FF034AB974
S31508002AD0094A107800F0FF0130B119460320137037
S31508002AE000F0FAFA0121E4E70220F9E72A030020B8
S31508002AF0B90B0020BA0B0020B80B002010B50B4C00
S31508002B00102003F023FF217859B1FFF76BFA01462D
S31508002B1030B9102003F0E8FE237883F00103237010
S31508002B2010BD052000F0D8FA0121F2E7290300209C
S31508002B3038B5202003F010FFE8B1314D202003F00E
S31508002B4005FF2B78002B43D0FFF74CFA04460028E4
S31508002B5054D10A222B4B1A702B4B187000F00AFD21
S31508002B602A4BC3E900012146202003F0BDFE2B783D
S31508002B7083F001032B704FF4807003F0EDFEE0B193
S31508002B804FF4807003F0E2FE214BD3F8082CD3F8FB
S31508002B90083CC2F30022C3F340239A421D4B1B781C
S31508002BA003F0FF011FD1E3B101221B4B1A70FFF797
S31508002BB005FA0021082000F08FFA4FF4007003F0A0
S31508002BC0CBFED8B1BDE838404FF4007003F0BEBE66
S31508002BD0FFF7F4F9014610B90A2000F07DFA012141
S31508002BE0C2E70620E7E73BB101220B4B1A70FFF755
S31508002BF0E5F900210920DEE70720DCE738BD00BF3C
S31508002C0028030020C80B0020BD0B0020C00B0020A5
S31508002C1000000140BC0B0020BB0B0020014B1868CC
S31508002C20704700BFF80B0020014B1868704700BFBB
S31508002C30F40B0020014B1878704700BFEC0B0020FE
S31508002C4010B504F02BFB0B4B196804F07BFB0A4B01
S31508002C50196804F06FFA0021044604F01BFD38B920
S31508002C604FF07C51204604F065FA04F057FD10BD7C
S31508002C700020FCE7340300203003002010B504F0E0
S31508002C800DFB0B4B196804F05DFB0A4B196804F041
S31508002C9051FA0021044604F0FDFC38B94FF07C5186
S31508002CA0204604F047FA04F039FD10BD0020FCE781
S31508002CB0440300204003002010B504F0EBFA104B43
S31508002CC0196804F03FFB0F4B196804F033FA00212A
S31508002CD0044604F0DFFC68B920460B4904F0E4FC1E
S31508002CE050B94FF07C51204604F024FA04F016FD42
S31508002CF080B210BD0020FCE740F6FF70F9E700BF80
S31508002D003C0300203803002000F07F45074B10B530
S31508002D101860074B074C1B782BB1FFF7CDFFC4F89B
S31508002D200804012010BDC4F80834FAE7F80B00209F
S31508002D30EC0B00200070004010B504F0AFFA0B4B06
S31508002D40196804F0FFFA0A4B196804F0F3F9002130
S31508002D50044604F09FFC38B94FF07C51204604F035
S31508002D60E9F904F0DBFC10BD0020FCE75403002061
S31508002D705003002010B504F091FA0D4B196804F0C1
S31508002D80D7F90C4B196804F091FB4FF07E5104F00B
S31508002D90D1F90021044604F07DFC38B94FF07C5186
S31508002DA0204604F0C7F904F0B9FC10BD0020FCE782
S31508002DB0500300205403002008B5044B186080B265
S31508002DC0FFF7D8FF024B1860012008BDF40B00205E
S31508002DD0E80B002010B504F061FA0D4B196804F0F1
S31508002DE0A7F90C4B196804F061FB4FF07E5104F00B
S31508002DF0A1F90021044604F04DFC38B94FF07C5186
S31508002E00204604F097F904F089FC10BD0020FCE781
S31508002E10400300204403002008B5044B186080B224
S31508002E20FFF7D8FF024B1860012008BDF00B002001
S31508002E30E40B002010B504F02DFA104B196804F0C5
S31508002E4081FA0F4B196804F075F90021044604F05D
S31508002E5021FC68B920460B4904F026FC50B94FF00E
S31508002E607C51204604F066F904F058FC80B210BD87
S31508002E700020FCE740F6FF70F9E700BF4C0300208E
S31508002E804803002000F07F45074B10B51860074B34
S31508002E90074C1B782BB1FFF7CDFFC4F814040120AB
S31508002EA010BDC4F81434FAE7FC0B0020EC0B002024
S31508002EB00070004038B50F4B0F4D104C187060B1BC
S31508002EC02868FFF723FF2068FFF7DEFFBDE83840D4
S31508002ED04FF400610A4803F08ABB4FF400610848C2
S31508002EE003F083FB2868FFF711FF2068BDE8384028
S31508002EF0FFF7CABFEC0B0020F80B0020FC0B0020E4
S31508002F00000C01402DE9F74F4B4BDFF830B1DFF8E5
S31508002F1030A1CBF800304B4BDFF82C91CAF80030C3
S31508002F204A4BDFF82C81C9F800304A4B4A4FC8F89B
S31508002F3000304A4B4A4E3B604A4B4B4D33604B4B35
S31508002F404B4A2B604B4B052113604B4B4B4A0446AF
S31508002F5013604B4B4B4A13606B4601AA00F0AAF963
S31508002F6018B1019B1B68CBF800306B46062120463A
S31508002F7001AA00F09FF918B1019B1B68CAF8003036
S31508002F806B460721204601AA00F094F918B1019B67
S31508002F901B68C9F800306B460821204601AA00F0D4
S31508002FA089F918B1019B1B68C8F800306B460B21DC
S31508002FB0204601AA00F07EF910B1019B1B683B6010
S31508002FC06B460C21204601AA00F074F910B1019B4A
S31508002FD01B6833606B460921204601AA00F06AF98E
S31508002FE010B1019B1B682B606B460A21204601AA7B
S31508002FF000F060F918B1019B1D4A1B6813606B4607
S315080030000D21204601AA00F055F918B1019B1B4A6B
S315080030101B6813606B460E21204601AA00F04AF988
S3150800302018B1019B174A1B6813600020FFF742FF7F
S3150800303003B0BDE8F08F00BF9643DB3F5403002082
S31508003040500300201F05EDC24C03002079E9263FF6
S3150800305048030020354E904344030020BE9F52414A
S31508003060400300208380C9C23C030020BC74933D02
S3150800307038030020CDCCEC3FCFF785413403002040
S31508003080583980423003002010B5064C802221466C
S31508003090054800F049FE2046BDE810408022002180
S315080030A003F0F4BD000C0020800C002037B505465F
S315080030B00C4608480DF1060100F050FE38B1BDF87F
S315080030C006301A0ADBB22A70237003B030BD0246F6
S315080030D00346F8E7800C002041EA0021014800F089
S315080030E02ABE00BF800C002030B18368026950F800
S315080030F023309B1A03F580607047836810B550F833
S31508003100232002F1080002F5806203688B4211D081
S3150800311001330DD043685C1E033409D89C0703D0DD
S3150800312023F00303043303D0083018448242ECD852
S315080031304FF0FF3010BD820738B504460D460AD158
S3150800314003F08AFC03F024F821684B1B59425941C5
S3150800315001EA501038BD0020FCE700002DE9F04FC9
S31508003160044685B0FEF7FEF9A268B2FA82F35B0957
S3150800317054F8239054F822A0484603F053F803F075
S3150800318007F8800606D40025FEF7E2F9284605B0BA
S31508003190BDE8F08F0AF580630AF1080609F108050B
S315080031A00293D6F800B0BBF1FF3F32D07268002A0E
S315080031B02FDD910716BF22F0030717460437BBF128
S315080031C0000F21D04FF00108BB0801330193434695
S315080031D00199884503D008F10108002B39D1114619
S315080031E0281D0193FFF7A7FF019B594600EA03082C
S315080031F05FFA88F82846FFF79EFFB8F1000FC2D09D
S315080032000028C0D008353D44029B08363E449E42FD
S31508003210C7D3E1682561013109F10400FFF78BFF87
S315080032200028B0D048461049FFF785FF0546002814
S31508003230A9D0504602F0F6FF02F0AAFF8306A2D5EF
S31508003240E3680133E360A368B3FA83F35B09A36019
S315080032509AE756F8281005EB88000392FFF76BFFEC
S31508003260039A0346B4E700BF74736150F8B506467F
S3150800327001254468FEF776F9A3071CBF24F003046A
S31508003280043406F1080724F003043C44A7424FF02F
S31508003290000100D045B93046FFF74DFF2840C4B2BB
S315080032A0FEF756F92046F8BD3846FFF744FF0437BF
S315080032B00546EBE770B5044616461D4690B1047DF3
S315080032C084B18AB193B100232B60FFF716FF041E61
S315080032D0C1BF63682B6004F108033360002CD4BFB8
S315080032E000240124204670BD1446FBE71C46F9E776
S315080032F008B558B1027D4AB14B1E033306D8FFF70D
S31508003300FCFE18B1BDE80840FFF7B0BF002008BDB5
S3150800331038B5044668B1406830B3FEF723F920682B
S3150800332002F080FF02F034FF820604D40024FEF780
S315080033300FF9204638BD606802F074FF02F028FFD6
S315080033408306F3D500212568C4E9021105F10803AF
S315080033502361281DFFF7EFFE0028E7D0284603491A
S31508003360FFF7E9FE0446E2E70446E2E774736150B4
S3150800337070B5044610B90025284670BDD0E900622C
S3150800338022497368366815688E42526827D1B54255
S315080033902BD193422CBF0021012193422CBFC3603D
S315080033A0C26081604FF0FF312046FFF7A6FE002875
S315080033B027DA2046FFF7D2FE0546A268236954F8A5
S315080033C02220257502F580629A42D5D919680131FD
S315080033D01AD02046FFF7C2FE0540EDB2CCE78D4273
S315080033E007D10123C0E90232DCE70022C0E9022343
S315080033F0D8E70023C0E90233FFF78AFF0028BAD0CE
S31508003400D0E701252061D8E70433DDE774736150FE
S3150800341008B50146FFF768FE1F2804D8BDE808402E
S315080034200846FFF79BBE002008BD032B2DE9F74F82
S3150800343005468A4616461C4604D80026304603B07A
S31508003440BDE8F08F0028F8D0037D002BF5D0002AC0
S31508003450F3D04B1E0333F0D8FEF784F82846FFF75F
S3150800346043FE04F10807B84213D351462846FFF72E
S3150800347044FED5F810800746214608F10400FFF7F8
S315080034805AFE88B90026FEF763F82846FFF7C0FFFC
S31508003490D4E72846FFF762FE0028CED02846FFF775
S315080034A023FE8742C9D8E0E708234FF0000904F055
S315080034B0030B56F8291008EB03000193FFF73BFEB0
S315080034C060B1019B09F10109BBF1000F01D09C42D3
S315080034D01ED9B4EB890F03F10403EAD8BBF1000F38
S315080034E016D151464046FFF726FE06460028C9D0A3
S315080034F0444404F10803A2071CBF23F00303043362
S31508003500002F2B61BFDB3846FFF7B0FE0646BAE749
S31508003510002319464FEA890206EB890616F8010BBD
S315080035204FEAC30C013300FA0CF05B4541EA00018F
S31508003530F4D108F108001044FFF7FDFD0028D0D1AA
S31508003540A0E708B5002003F0E3FA41F26F7003F034
S31508003550D9FA03F0E7FABDE8084003F0F1BA00002B
S31508003560034A116813685B1A8342FBD3704700BF8E
S31508003570940C002038B503F0DCFA044B1C68044BA5
S315080035801D6803F0CFFA2846214638BD900C002066
S31508003590940C0020054B1A6801321A601B681BB987
S315080035A0034A136801331360704700BF940C002068
S315080035B0900C002008B500F02DFC022000F0DCFD80
S315080035C0BDE80840002000F0A5BD002000F0A2BD1F
S315080035D070B451B970BC002A18BFFF2140F20462CA
S315080035E008BF0021294803F051BB294C0144B2B158
S315080035F0264B02781D4602F00F0254F822200833A3
S31508003600D24343F8082C10F8012B120954F822204B
S3150800361081426FEA02026A60EBD170BC70474FF6CE
S31508003620FF7293421FD01A0292B242EA1323194A32
S3150800363003EB0343127802B1DB43144A16460578B6
S31508003640083205F00F0554F825501D4042F8085C6D
S3150800365010F8015B2D0954F82550814205EA030547
S315080036607560EBD1D9E7094B1D460278083302F09D
S315080036700F0254F8222043F8082C10F8012B1209DF
S3150800368054F8222088426A60EED1C6E7980C0020DA
S31508003690807800089C12002070B50C46BDF8101002
S315080036A00646154698B2531E621E0B4402449BB248
S315080036B092B200F097FC4FF48041064802F095FF5D
S315080036C0002305FB04F13046BDE870401A46490060
S315080036D000F036BA000C014003289ABF014B185C6B
S315080036E0002070475C78000810B52039032809D8EF
S315080036F0DFE800F002090E130A48415C11600A4A25
S3150800370012681A6010BD0948415C1160084AF7E75B
S315080037100848415C1160084AF2E70848415C1160B4
S31508003720074AEDE7E0790008B07F0008D480000872
S315080037302082000844830008608500088486000803
S31508003740B88D000810B5203903280CD8DFE800F03A
S31508003750020C141C1048114C30F81100204410605B
S315080037600F4A525C1A6010BD0E480F4C30F8110013
S31508003770204410600D4AF4E70D480E4C30F811004D
S31508003780204410600C4AECE70C480D4C30F8110048
S31508003790204410600B4AE4E7C0780008407A000825
S315080037A080790008B47F0008348100087480000816
S315080037B024820008A4830008E482000864850008BF
S315080037C0E48600082486000830B589B0BDF8304084
S315080037D089B264BA80B2ADF80040ADF80240ADF8DF
S315080037E00440ADF80640ADF80840ADF80A40ADF81B
S315080037F00C40ADF80E40ADF81040ADF81240ADF8EB
S315080038001440ADF81640ADF81840ADF81A40ADF8BA
S315080038101C40ADF81E404C1E03FB02F52344441E13
S3150800382022449BB292B200F0DDFB4FF480410A4875
S315080038306D0002F0DAFE002D01DC09B030BD202D46
S315080038402C464FF0000328BF20241A462146684616
S3150800385000F076F92D1BEEE7000C01402DE9F04F3C
S3150800386087B09046994602AA03AB07468A469DF852
S315080038704C60FFF739FF029D002D4DD0039C002CAC
S315080038804CD05146384604AB05AAFFF75BFFDDE985
S3150800389004103246BDF84830FFF79AFE109B6A1EA0
S315080038A0A3EB050A119B08EB5A07191B09EB5101F3
S315080038B0B8B289B2631E0B4402449BB292B200F0BE
S315080038C091FB4FF48041164802F08FFE002304FB5B
S315080038D005F11A461348490000F032F97642B84510
S315080038E04FEA5A0BB6B206D25A4649464046119B8B
S315080038F00096FFF769FF109BE8194344984207D2E0
S315080039000AF101024946119B00965208FFF75CFF2F
S31508003910E8B207B0BDE8F08F2846FAE72046F8E790
S31508003920000C0140980C00202DE9F04F904691B00C
S315080039301E46BDF8703003900593FFF7CDFE44464A
S315080039404FF0010B04900D4609A80DF126019DF8CC
S31508003950747000F027FB0BAB202103980AAAFFF727
S31508003960C3FE0B9BF61A7B429BB206930DB12B78CE
S315080039701BB9A4EB080080B238E0BBF1000F09D1EF
S31508003980069B2046009331461B9B049AFFF71CFFB3
S31508003990049B1C44297803980DAB0CAA0791FFF7E2
S315080039A0A3FEDDF830A0BAF1000FDFD0DDF83490C1
S315080039B0B9F1000FDAD0BDF824B01A9AA8EB0403BF
S315080039C09B4413449B4528BF9B46DA45079910D963
S315080039D07F425A46BFB2A34420464B46314600971B
S315080039E0ABEB080BFFF7F0FE1FFA8BF011B0BDE842
S315080039F0F08F03980EAB0FAAFFF7A4FEDDE90E10B1
S31508003A003A46059BFFF7E4FDA0B2B1B209F1FF33D0
S31508003A100AF1FF320B4402449BB292B200F0E2FA7A
S31508003A204FF48041074802F0E0FD002309FB0AF144
S31508003A301A460548490000F083F84FF0000B544435
S31508003A40013593E7000C0140980C00202DE9F14F51
S31508003A500D461C46BDF828700FFA80FA0FFA81F851
S31508003A600FFA82FB064691463B465A464146504661
S31508003A7000F02CFB29193B465A46504624B209B297
S31508003A8000F024FB3B4622464146504600F0F6FA33
S31508003A903B462246414606EB090000B201B0BDE8A6
S31508003AA0F04F00F0EBBA000010B5044600F081FABA
S31508003AB0014B1C7010BD00BF9C120020014B1878EA
S31508003AC0704700BF9C12002037B50024194B1A4DC9
S31508003AD040F28E301C7002F0E8FE4FF4207002F0BF
S31508003AE0E4FE284602F018FE144B02222146C3F8CB
S31508003AF01C4828460123CDE9004402F04CFE28461E
S31508003B0002F027FE284602F02DFE284602F01CFE8B
S31508003B1021460E2003F030F80E2003F021F8214646
S31508003B200F2003F029F80F2003B0BDE8304003F05A
S31508003B3017B800BF9D120020003800400030004032
S31508003B402DE9F743804653EA01000C4691461D4687
S31508003B5000F08D8004214F4802F0BCFC05214D4839
S31508003B6002F0B8FC4C4AD2F8087817F0410740F042
S31508003B7081804A4E3770002D00F088803378042102
S31508003B8043F00203464A4348337002F016FD4A469C
S31508003B900421404802F01AFDAAB204213D4802F069
S31508003BA01EFD04213B4802F0D2FC0421394802F0EC
S31508003BB0C5FC3A460421374802F0B4FC3A460421CB
S31508003BC0344802F0A3FC4FF440520421314802F075
S31508003BD091FC04212F4802F0CCFC04212D4802F068
S31508003BE0DAFC002C4CD03378052143F001032C4A2B
S31508003BF02848337002F0E1FC42460521254802F0C8
S31508003C00E5FCA2B20521234802F0E9FC052121487A
S31508003C1002F0A6FC05211F4802F090FC00220521AF
S31508003C201C4802F07FFC002205211A4802F06EFCAF
S31508003C304FF400520521174802F05CFC052115488F
S31508003C4002F097FC0521134802F0A5FCC5B91548F2
S31508003C5002F08DFD3378002BFCD10F4BD3F80828E2
S31508003C609107FBD5D3F808281206FBD4012003B028
S31508003C70BDE8F083D2F80C38DBB28DF8073072E76E
S31508003C80084802F07EFD002CE4D0E0E7002CE1D0E5
S31508003C90A9E700BF00000240003000409D12002046
S31508003CA00C3800400038004008B50C4B04211A684F
S31508003CB00A48920642BF5A6842F020025A6002F049
S31508003CC061FC074802F062FD0421044802F06CFC1E
S31508003CD0044A137803F0FD03137008BD0000024080
S31508003CE0003800409D12002008B50C4B05211A68C3
S31508003CF00A48920542BF5A6842F400725A6002F0B6
S31508003D0041FC074802F038FD0521044802F04CFC46
S31508003D10044A137803F0FE03137008BD000002403E
S31508003D20003800409D12002000235208C0E90233E3
S31508003D30016042607047C26830B54468531CB3FBE3
S31508003D40F4F504FB15338468A34217BF0468002002
S31508003D5024F81210C36018BF012030BDD0E9023222
S31508003D6093420CD0026832F8132001330A80426865
S31508003D70B3FBF2F102FB1133836001207047002088
S31508003D807047000013B504464FF48041064802F018
S31508003D902CFC002301211A4601A88DF80440FFF7E0
S31508003DA0CFFE02B010BD00BF000C014013B504469B
S31508003DB04FF48041064802F018FC002302211A46F7
S31508003DC064BA01A8ADF80440FFF7BAFE02B010BD08
S31508003DD0000C014013B504464FF48041064802F032
S31508003DE006FC002301211A4601A88DF80440FFF7B6
S31508003DF0A7FE02B010BD00BF000C0140044A1378AC
S31508003E0018B903F0F7031370704743F00803FAE78D
S31508003E10A512002080235C4A70B513805B4A4FF4D4
S31508003E2080515B48138002F0E0FB0A20FFF798FBFD
S31508003E304FF48051564802F0DAFB3220FFF790FB28
S31508003E404FF48051524802F0D0FB3220FFF788FB2E
S31508003E500023504A504D012013702B70FFF7BAFF0C
S31508003E600120FFF77DFB1120FFF7B4FF3A20FFF78B
S31508003E70B1FF0520FFF786FF2620FFF7ABFF0420DA
S31508003E80FFF780FFF220FFF7A5FF0120FFF77AFF73
S31508003E901320FFF79FFFB620FFF79CFFFF20FFF7D1
S31508003EA071FF0620FFF76EFFE020FFF793FF0F2450
S31508003EB03A4E16F8010B013CFFF764FF14F0FF04B5
S31508003EC0F7D1E120FFF786FF0F24354E16F8010BD0
S31508003ED0013CFFF757FF14F0FF04F7D1B120FFF7B5
S31508003EE079FF0820FFF74EFF0220FFF74BFFB420AB
S31508003EF0FFF770FF0720FFF745FFC020FFF76AFFAF
S31508003F000A20FFF73FFF0220FFF73CFFC120FFF71B
S31508003F1061FF0220FFF736FFC520FFF75BFF502041
S31508003F20FFF730FF6320FFF72DFFC720FFF752FF8B
S31508003F302046FFF727FF2A20FFF74CFF2046FFF70A
S31508003F4035FF8020FFF732FF2B20FFF743FF20467F
S31508003F50FFF72CFFA020FFF729FF3320FFF73AFFD2
S31508003F602020FFF723FF8020FFF720FF2046FFF7DA
S31508003F701DFF2878FFF742FF2920FFF72BFFBDE832
S31508003F8070402C20FFF726BFA2120020A0120020A6
S31508003F90000C0140A5120020A41200206F7800082A
S31508003FA06078000808B18023038009B1A0230B803C
S31508003FB070472030C0B2FFF70DBF0000074BB3F9BA
S31508003FC00030834207DD064BB3F900008842CCBFB8
S31508003FD00020012070470120704700BFA212002070
S31508003FE0A01200202DE9F041DFF88C8007462A2030
S31508003FF01C460D461646FFF7EDFE98F80030032BD3
S315080040001BD1F81C80B2FFF7D1FEF01C80B2FFF777
S31508004010CDFE2B20FFF7DEFE98F80030032B1AD1D1
S31508004020A81C80B2FFF7C2FEA01C80B2FFF7BEFE36
S31508004030BDE8F0412C20FFF7CDBE012B05D0B81CFA
S3150800404080B2FFF7B3FEB01CE0E7781C80B2FFF73A
S31508004050ADFE701CDAE7022B05D1E81C80B2FFF72B
S31508004060A5FEE01CE1E7012BDAD0681C80B2FFF759
S315080040709DFE601CD9E700BF9E1200202DE9F04185
S3150800408080460D4614461F46FFF798FFA0B90E4B0B
S315080040901544B3F9006089B2B542C4BF761A34B282
S315080040A0A4B24B1E1FFA88F2234410469BB2FFF7B0
S315080040B099FF23B2002B01DCBDE8F0813846013CAC
S315080040C0FFF774FEA4B2F4E7A0120020F8B505467F
S315080040D01E46FFF773FF98B90D4BA8B2B3F9004017
S315080040E01544A542C4BF241A22B294B2421E8BB20A
S315080040F02244194692B2FFF775FF23B2002B00DC63
S31508004100F8BD3046013CFFF751FEA4B2F5E700BF03
S31508004110A212002010B540BA88B04FF48041ADF81D
S315080041200000ADF80200ADF80400ADF80600ADF8E1
S315080041300800ADF80A00ADF80C00ADF80E000D4801
S3150800414002F055FA0021A02308468222FFF74AFF0B
S315080041504FF48041074802F048FA40F62824102315
S31508004160684619460DEB0302FFF7EAFC013CF6D157
S3150800417008B010BD000C014000F00300022810B57D
S315080041801AD003281AD001280CBF682308230C4C20
S315080041900C4A2370802310700B4A13800B4A138035
S315080041A00B4B1878FFF72AFE3620FFF713FE207808
S315080041B0BDE81040FFF7E6BDC823E8E7A823E6E711
S315080041C0A51200209E120020A2120020A012002094
S315080041D0A4120020F0B500281446DDE905252EDADC
S315080041E06BBB0126404214F0010F14BF4FF0410C7F
S315080041F04FF0610C1346ACF10A0C0746B0FBF1F020
S3150800420001FB107E5FFA8EF4BEF1090F94BF3034BD
S315080042106444E4B28F4203F8014BEED23024504294
S315080042201918A9420DD316B12D2103F8011B002137
S31508004230981A197002EB5001914205D1F0BD00267B
S31508004240D1E703F8014BEBE7147813F8015D02F8A0
S31508004250015B1C70F0E7DCF8003010B5DCE90142C0
S31508004260013B121B9B1A8B4294BFC21842189042FC
S31508004270DCF8083002D100221A7010BD591CCCF89F
S31508004280081010F8011B1970F1E7DCF80010DCE9DA
S315080042900132D31A01338B4207D2531CCCF80830AB
S315080042A010700022DCF808301A70704770B5154691
S315080042B08CB0CDE902101C4610AB059304902A7801
S315080042C0DDE90313581AC2B10299431C8B4214D272
S315080042D0252A04D0013510460DF1080C48E06A7805
S315080042E0302A0CD000230235642A1FD012D8582A47
S315080042F030D0632A38D0002AEDD10CB070BDAB7827
S31508004300002BFAD0303BDBB20A2BEA7828BF002311
S315080043100435E9E7752A09D0782A1BD0732ADAD139
S3150800432054F8046B304602F0DFFD0CE0A2F175008C
S315080043300A210022019306AE43420096434154F8EF
S31508004340040BFFF747FF01460DF1080C3046FFF74F
S3150800435082FFB4E7A2F158014A4206AE01934A41E8
S31508004360012310210096EAE714F8040B0DF1080C56
S31508004370FFF78BFFA3E70CB407B504AB53F8042B80
S315080043800193FFF793FF03B05DF804EB02B07047A3
S31508004390084B07B51968084B10391868074B1038C9
S315080043A01B88009310231A46FFF70EFA03B05DF830
S315080043B004FB00BF4C1300205013002054130020A8
S315080043C00246002030B5074B1B681C78844201D989
S315080043D0884200D130BD53F8045F6D6842F820501A
S315080043E00130F3E7C8120020034B1B685A7803EB29
S315080043F082035B6858687047C812002007B50246F2
S315080044000321044801ABFEF755FF00B1019803B03C
S315080044105DF804FB2004002007B502460421044881
S3150800442001ABFEF747FF00B1019803B05DF804FB46
S3150800443020040020084B0C211B685A7803EB8203E2
S315080044405B681B330360002001FB00F29A5C02B92B
S3150800445070470130F8E700BFC812002010B5084BB6
S315080044601B685C7803EB84035B68D3F8803023B160
S315080044709847B0FA80F0400910BD1846FCE700BF1F
S31508004480C812002038B5094D2B685A7803EB820309
S315080044905B68DB6F43B19847044618B90121286861
S315080044A0FDF7E8F8204638BD0324FBE7C8120020CC
S315080044B038B50D462A49044602F038FC002838D09B
S315080044C02046284902F032FCA8B32046264902F0C5
S315080044D02DFC90B32046254902F028FC78B32046E7
S315080044E0234902F023FC60B32046224902F01EFC51
S315080044F048B32046204902F019FC30B320461F492C
S3150800450002F014FC18B320461D4902F00FFC00B354
S3150800451020461C4902F00AFCE8B90E2104232A4663
S315080045201948FEF782FFC0B11748FEF7EBFC0020DA
S3150800453038BD0521F2E70621F0E70721EEE7082155
S31508004540ECE70B21EAE70C21E8E70921E6E70A216F
S31508004550E4E70D21E2E70320EAE70420E8E700BFE5
S31508004560B7770008BF770008C7770008CF77000835
S31508004570D7770008DF770008E7770008EF770008A5
S31508004580F7770008017800082004002010B5194CB8
S3150800459005212046FEF7ACFE06212046FEF7A8FEBA
S315080045A007212046FEF7A4FE08212046FEF7A0FEB6
S315080045B009212046FEF79CFE0A212046FEF798FEB2
S315080045C00B212046FEF794FE0C212046FEF790FEAE
S315080045D00D212046FEF78CFE0E212046FEF788FEAA
S315080045E02046FEF78FFC044B00211868FDF742F8B9
S315080045F0012010BD20040020C812002008B5094B70
S3150800460002461B68597803EB81035B68D86E38B19C
S315080046101B7E934203D000210520FEF75DFD012095
S3150800462008BD00BFC812002008B5034B014618682C
S31508004630FDF778F8012008BDC8120020114B07B510
S315080046401A78824211D0002218700F4B1A600F4B4D
S3150800465019680F4B103958B101220E481A7000918B
S315080046601B2310220C21FFF717F803B05DF804FB93
S315080046701870094B0C221B881B2000931023FFF788
S31508004680A3F8F2E72E130020381300204C1300205D
S31508004690341300203C95000854130020C822034B0D
S315080046A01A600222024B1A60704700BF48130020A6
S315080046B04413002007B51E4B1A78824218D018708A
S315080046C0042815D8DFE800F003171C2C3000002258
S315080046D0184B04201A600122174B1A70174B132225
S315080046E01968174B10391B8800931023FFF76CF8CD
S315080046F003B05DF804FB4FF47A720E4B1A60F7E7C5
S3150800470000230C4A132113600B4A0E4813700B4BF7
S3150800471010221B68103B00930423FEF7BDFFE7E752
S315080047204FF4FA72034BE9E7FA22024BE6E700BFB9
S315080047302F130020401300203C1300204C130020A8
S3150800474054130020BC960008094B07B5187050B1E1
S3150800475010227C231146009306487023FEF79CFF1F
S3150800476003B05DF804FB03B05DF804EBFFF710BE79
S315080047702D13002038B0000807B501A90DF106026F
S315080047800DF10200FDF7B8FFBDF80400FEF758FA70
S31508004790054B1A6A186318469047044B1878FFF7B2
S315080047A0D3FF03B05DF804FBE00300202D130020BF
S315080047B008B50248FEF72CFE02F0CAF920040020CC
S315080047C0012838B5044615D80B4D2868FDF79EF81C
S315080047D000220A4B1A70FFF7DBFD094A094B002C29
S315080047E008BF13462B60FEF7F0FE2868FCF76FFF3C
S315080047F0012038BD0020FCE7C81200202D13002038
S315080048000C130020EC1200202DE9FF48FDF74EFCA2
S3150800481040F2033002F049F800224FF40063032106
S31508004820C14801F03FFD4FF40061BF4801F0DFFECB
S315080048304FF47A70FEF794FEFEF7BCFE3220BB4CAE
S31508004840FEF78EFEFEF7C1FEB94B2046236003F540
S3150800485080636360FEF78CFD2046FEF753FBFEF788
S3150800486013FCFDF7CFFF10B12046FEF751FD0023DC
S3150800487002210493AD4803AB04AAFEF71BFD28B139
S31508004880049818B10068003818BF0120FFF70CF922
S315080048900F21A64803AB04AAFEF70CFDA54F18B1D5
S315080048A0049B0BB11B683B703878FDF776FF002335
S315080048B0042105939D4803AB05AAFEF7FBFC0028D7
S315080048C040F078812B2304219B4A9848FEF7ADFDDA
S315080048D08023DFF868924FF00008C9F800308C236F
S315080048E0974E984CDFF860A2904930462360AAF8A4
S315080048F00080FCF793FE304600F030FD304600F0AD
S315080049009BFB304600F016FF88499048FCF786FE68
S315080049108F4D8E48FDF72EFB84498E48FCF77EFEA8
S315080049202846FDF7F9F96C238B4AEB801268236851
S315080049308A499B1A2B818748894DFCF777FE3046B2
S315080049402E60FCF7C4FE8348FCF7C1FE0120FFF782
S31508004950B1FEFEF73AFE2268D9F800301D3A520831
S31508004960663B5B0866217F4800921D22FEF794FE8F
S315080049703878FDF7EAFE40F2EE20FEF7F1FDFEF785
S3150800498024FE01212868FCF775FE00F0EFF90123E3
S315080049904046CDE900881A464FF40061FDF73CFB16
S315080049A0DFF8C481002304A903A88DF81030FEF7A8
S315080049B07DFB002840F02B81FDF702FFD8E9003285
S315080049C0134340F00081FEF7D5FDDFF8A0B1C8E932
S315080049D000012868FCF794FF5E48FCF791FFDBF8B6
S315080049E0003053B3FEF7C6FDDFF88491D9E90032EB
S315080049F0C01ADBF8003061EB020183424FF0000376
S31508004A008B411AD2FEF7B6FDC9E90001DFF86491B9
S31508004A1099F80030002B00F0E5802168BAF80030DC
S31508004A2013220093042010231039FEF7CDFE99F8BF
S31508004A30003083F0010389F80030DFF83CB1DBF879
S31508004A400030002B3FD0FEF795FDDFF83091D9E90D
S31508004A500032C01ADBF8003061EB020183424FF0E6
S31508004A6000038B412FD2FEF785FDDFF814B1C9E9A3
S31508004A7000019BF8003083F001038BF80030002B0F
S31508004A8000F0BA8023681022103B00930C211B23E8
S31508004A903C48FEF701FE3C4B1A6802F1FF39C3F8A1
S31508004AA00090B9F1000F0ED101238BF8003023686E
S31508004AB01022103B00930C211B233248FEF7ECFD15
S31508004AC02D4BC3F80090DFF8C490D9F8003033B303
S31508004AD0FEF750FDDFF8B8B0DBE90032C01AD9F8A6
S31508004AE0003061EB020183424FF000038B4116D27E
S31508004AF0FEF740FDCBE90001DFF898B0DBF800309F
S31508004B00013BCBF80030FEF7D9FF80F00100C0B2B8
S31508004B10FEF7CAFFDBF800300BB9C9F800301E4BA8
S31508004B201B78012B5BD139E0000C014020040020E2
S31508004B3000F80008380400200B78000850130020FD
S31508004B400C1300204C13002054130020EC120020F4
S31508004B50E0030020CC120020208200085803002021
S31508004B60C81200201C990008C0120020401300201B
S31508004B70B81200203C13002038130020B012002081
S31508004B80341300203C9500083013002048130020F9
S31508004B90A8120020441300202F130020FEF7EAFC79
S31508004BA042F21173984271F1000118D30020FFF701
S31508004BB081FD14E0039A6349059802F0C3F90028B9
S31508004BC03FF486AE7EE6FEF7D5FCD8E90023801AC8
S31508004BD061EB0301FA2871F10001BFF4F4AE00F0AD
S31508004BE0CDF8DFE623681022103B00931321042337
S31508004BF05548FEF751FD1AE72168BAF800300C222D
S31508004C0000931B2010231039FEF7DEFD43E79DF8BD
S31508004C100C300B2B03D19DF8100001F013FA9DF808
S31508004C200C904A4AB9F10A0F9DF81030107806D14F
S31508004C30012B04D180F00100FFF700FDCFE709F151
S31508004C40FF3370B1D9B209290BD840F27B22CA408A
S31508004C50D20706D5FA223E4B1A6004223D4B1A604B
S31508004C60BDE70C2BBBD801A252F823F0314D000842
S31508004C70314D0008DB4C0008314D0008E94C0008AE
S31508004C80314D0008314D0008314D0008314D0008FE
S31508004C90314D0008DF4B0008A14C0008C14C000844
S31508004CA0C8222D4B1A6002222C4B1A6000222C4B6C
S31508004CB01A70FFF76DFB0C212868FCF7A1FD8EE73B
S31508004CC0C822254B1A600222244B1A600022244B64
S31508004CD01A70FFF75DFB0D21EEE72868831B584223
S31508004CE05841FFF76DFD7AE7FEF7E8FEDFF874B086
S31508004CF09BF8003083420AD0FEF7E0FE04238BF8C7
S31508004D00000005900221184805AAFEF78EFBFDF75C
S31508004D104CFD97F9003098420AD0FDF746FD40B29F
S31508004D203870059004230F210F4805AAFEF77DFB6E
S31508004D3049462868FCF764FD00212868FCF79AFCB8
S31508004D404DE700BF0B780008BC9600082E1300201C
S31508004D503813002030130020481300204413002085
S31508004D602D1300202C1300202004002008B5C8208D
S31508004D7001F088FCBDE8084001F074BC01F0C4BC31
S31508004D80006B024B1860FEF747B800BF5C130020A3
S31508004D90006B024B1860FEF777B800BF5813002067
S31508004DA070B504460D4601461548164601F0BEFF85
S31508004DB020B12146134801F0B9FF70B9FDF73AFF53
S31508004DC040B9114B1B6B31462846104AFFF7D3FAF8
S31508004DD0002070BD0E4B1B68F5E721460D4801F013
S31508004DE0A5FF20B121460C4801F0A0FF30B9FDF718
S31508004DF021FF08B9094BE5E7094BECE70120E8E78D
S31508004E003C780008447800080805002071770008F7
S31508004E105C130020467800084E780008C804002075
S31508004E205813002038B50546084601F0B5FE294650
S31508004E300446174801F07AFF20B12946154801F0C3
S31508004E4075FF58B91448436BA3421EDC836BA34213
S31508004E501BDB0463FFF794FF002038BD29460F4883
S31508004E6001F064FF20B129460D4801F05FFF50B9F3
S31508004E700C48436BA34208DC836BA34205DB04633F
S31508004E80FFF786FFE8E70120E7E70220E5E700BF2E
S31508004E903C78000844780008080500204678000891
S31508004EA04E780008C8040020002313B54FF000719F
S31508004EB0019301AA6B460446FEF7FCF928B1019B4B
S31508004EC0094A1B681363094A13606B46204608495A
S31508004ED001AAFEF7EFF928B1019B064A1B6813637E
S31508004EE0054A136002B010BD080500205C130020B7
S31508004EF001000002C80400205813002010B504461B
S31508004F0004234FF00071054AFEF78FFA2046BDE8E4
S31508004F1010400423024A0349FEF787BA5C130020AF
S31508004F20581300200100000213B50DF1060201A96D
S31508004F300DF10200FDF7E0FBBDF80400FDF780FE69
S31508004F4002F0A8F91C4902F0B1FA4FF07C5102F0C0
S31508004F50F1F802F0BDFB194CA063FDF76BFEB0B18A
S31508004F60E378B3B1164B226B1B689A4203D02363CE
S31508004F702046236A9847134CE3789BB1124B226B61
S31508004F801B689A4203D023632046236A984702B0D7
S31508004F9010BDBDF80600FDF771FE236B8342EAD00B
S31508004FA02063E5E7BDF80200FDF7C6FE236B8342E2
S31508004FB0EDD02063E8E700BFCDCC8C3F0805002084
S31508004FC05C130020C8040020581300202DE9F04186
S31508004FD0154F164C164E174DB8B1236BA06B3B6098
S31508004FE02B6BA0F57A703360FDF790FE286BFDF702
S31508004FF04BFF4FF6FF70FDF7DFFE206BFDF70CFF4A
S31508005000BDE8F0410120FDF755BFFDF753FF3B68AA
S3150800501020462363236A9847336828462B632B6AFE
S31508005020BDE8F041184700BF5C13002008050020C2
S3150800503058130020C804002070B586B00446FDF752
S31508005040EDFD164D164E2863FDF7EEFD0DF1160221
S3150800505005A930630DF11200FDF74EFBBDF81400EB
S31508005060FDF7EEFDA8632846FCF756FE3046FCF72A
S3150800507053FE20460B49FCF7D9FA4FF6FF7300207A
S315080050801422CDE9023040230749CDE900329A239C
S315080050901E22FEF749FC06B070BD00BF08050020B9
S315080050A0C80400203C0400205C770008006B024B13
S315080050B01860FDF72BBE00BF64130020006B024B7F
S315080050C01860FDF779BE00BF6013002070B504466E
S315080050D00D4601461548164601F028FE20B1214620
S315080050E0134801F023FE70B9FDF7A4FD40B9114B32
S315080050F01B6B31462846104AFFF73DF9002070BD64
S315080051000E4B1B68F5E721460D4801F00FFE20B14E
S3150800511021460C4801F00AFE30B9FDF78BFD08B9A7
S31508005120094BE5E7094BECE70120E8E73C7800087E
S3150800513044780008140600207177000864130020DC
S31508005140467800084E780008D40500206013002031
S3150800515038B50546084601F01FFD29460446174896
S3150800516001F0E4FD20B12946154801F0DFFD58B9E4
S315080051701448436BA3421EDC836BA3421BDB046308
S31508005180FFF794FF002038BD29460F4801F0CEFDF1
S3150800519020B129460D4801F0C9FD50B90C48436BAA
S315080051A0A34208DC836BA34205DB0463FFF786FF93
S315080051B0E8E70120E7E70220E5E700BF3C780008BA
S315080051C04478000814060020467800084E7800083F
S315080051D0D4050020002313B54FF08071019301AA6E
S315080051E06B460446FEF766F828B1019B094A1B6818
S315080051F01363094A13606B462046084901AAFEF75D
S3150800520059F828B1019B064A1B681363054A1360BF
S3150800521002B010BD1406002064130020010000012E
S31508005220D40500206013002010B5044604234FF06F
S315080052308071054AFEF7F9F82046BDE810400423B8
S31508005240024A0349FEF7F1B86413002060130020F0
S315080052500100000137B50DF1060201A90DF10200A2
S31508005260FDF74AFABDF80400FDF7EAFC02F012F869
S315080052701C4902F01BF94FF07C5101F05BFF02F06C
S3150800528027FA194CA063FDF7D5FC00B3E3785BB1A8
S31508005290256BFDF7C3FC85420DD0FDF7BFFC2063E7
S315080052A0236A2046984706E0BDF80600FDF7E6FCA7
S315080052B0236B8342F3D10D4CE37853B10C4B226B2D
S315080052C01B689A4203D023632046236A984703B093
S315080052D030BDBDF80200FDF72FFD236B8342F6D0E3
S315080052E02063F1E7CDCC8C3F14060020D4050020BE
S315080052F0601300202DE9F041144D154F154E164C3C
S31508005300A8B1236B286B33603860FDF7FFFC41F2C8
S315080053108830FDF7B9FD206BFDF74EFD4FF6FF709F
S31508005320FDF77AFDBDE8F0410120FDF7C3BDFDF7A5
S31508005330C1FD3B6828462B632B6A9847336820468D
S315080053402363236ABDE8F041184700BF140600200E
S315080053506413002060130020D4050020F0B5002453
S3150800536087B0174D174F0DF1160205A906460DF120
S3150800537012002C633C63FDF7BFF9BDF81400FDF776
S315080053805FFCA8632846FCF7C7FC0223384685F865
S315080053902E30FCF7C1FC30460B49FCF747F91423BD
S315080053A04FF6FF72CDE9013240231E2200932046B4
S315080053B09A2306490394FEF7B7FA07B0F0BD00BF73
S315080053C014060020D4050020480500205C77000854
S315080053D0006B024B1860FDF799BC00BF70130020E4
S315080053E0006B024B1860FDF74FBD00BF6C13002021
S315080053F070B504460D4601461548164601F096FC5A
S3150800540020B12146134801F091FC70B9FDF712FC52
S3150800541040B9114B1B6B31462846104AFEF7ABFFC5
S31508005420002070BD0E4B1B68F5E721460D4801F0BC
S315080054307DFC20B121460C4801F078FC30B9FDF717
S31508005440F9FB08B9094BE5E7094BECE70120E8E762
S315080054503C78000844780008200700207177000887
S3150800546070130020467800084E780008E0060020F1
S315080054706C13002038B50546084601F08DFB294611
S315080054800446174801F052FC20B12946154801F098
S315080054904DFC58B91448436BA3421EDC836BA342E8
S315080054A01BDB0463FFF794FF002038BD29460F482D
S315080054B001F03CFC20B129460D4801F037FC50B9F3
S315080054C00C48436BA34208DC836BA34205DB0463E9
S315080054D0FFF786FFE8E70120E7E70220E5E700BFD8
S315080054E03C78000844780008200700204678000821
S315080054F04E780008E0060020002313B54FF04071EF
S31508005500019301AA6B460446FDF7D4FE28B1019B18
S31508005510094A1B681363094A13606B462046084903
S3150800552001AAFDF7C7FE28B1019B064A1B6813634B
S31508005530054A136002B010BD200700207013002032
S3150800554001000003E00600206C13002010B5044695
S3150800555004234FF04071054AFDF767FF2046BDE872
S3150800556010400423024A0349FDF75FBF7013002069
S315080055706C130020010000032DE9FF410DF10E0216
S3150800558003A90DF10A00FDF7B7F8BDF80C00FDF701
S3150800559057FB01F07FFE324901F088FF4FF07C513E
S315080055A001F0C8FD02F094F82E4CA063FDF742FB0B
S315080055B000283DD0BDF80E00FDF760FB0646BDF895
S315080055C00A00FDF7B9FBE3780546DFF89C80002B57
S315080055D031D0D8F80030226B9A4203D02363204694
S315080055E0236A98472148224FC278036B42B33A6828
S315080055F09A4202D00263036A9847D8F800203B68AB
S31508005600921B5B1B002AB8BF5242002B194CB8BF2D
S315080056105B429A42217817DD022909D071230F22AD
S315080056200093102119231448FEF736F80223237035
S3150800563004B0BDE8F081236BB342D3D02663CEE72E
S315080056409D42DAD00563D6E70129F1D071230F22EE
S315080056500093102119230948FEF71EF80123E6E7EF
S31508005660CDCC8C3F2007002070130020E0060020D8
S315080056706C13002068130020BC8D00087C9100087C
S3150800568013B5084C2378013B012B07D800231022B9
S31508005690009371210F231920FEF796F80023237033
S315080056A002B010BD681300202DE9F34105461C4ED3
S315080056B0DFF870801C4F1D4C98B1236B306B3B6034
S315080056C0C8F80000FDF722FB206BFDF7DDFB4FF65F
S315080056D0FF70FDF771FB012002B0BDE8F041FDF750
S315080056E0E9BBFDF7E7FBD8F8003030463363336A89
S315080056F098473B6820462363236A0D4C98472378CE
S31508005700013B012B06D80F23102271211920009581
S31508005710FEF75AF80023237002B0BDE8F08100BFF7
S3150800572020070020701300206C130020E0060020DC
S3150800573068130020F0B5002487B0174D174F0DF1F8
S31508005740160205A906460DF112002C633C63FCF708
S31508005750D3FFBDF81400FDF773FAA8632846FCF7D3
S31508005760DBFA0223384685F82E30FCF7D5FA3046A0
S315080057700B49FBF75BFF14234FF6FF72CDE90132A5
S3150800578040231E22009320469A2306490394FEF7D7
S31508005790CBF807B0F0BD00BF20070020E0060020C8
S315080057A0540600205C7700087E2303700123C0F8A6
S315080057B080300023A0F88430C0F888307047002372
S315080057C0C0F888307047A1F17D02022A10B5D0F8DA
S315080057D08030044611D89A1C7F2A0DD87D20E054C3
S315080057E0C4F88020234481F020025A70B4F884005B
S315080057F0FBF7D4FEA4F8840010BD5A1C7F2AFBD8F8
S31508005800C0F88020C154F1E7A1F17D02022A10B543
S31508005810D0F880300BD89A1C7F2A07D87D2481F0CF
S315080058202001C454C0F880201844417010BD7F2B55
S315080058309EBF5A1CC0F88020C154F7E738B5054604
S315080058400C46090AFFF7BFFF2846E1B2BDE8384013
S31508005850FFF7B9BF38B505460C46090EFFF7B3FF83
S315080058602846C4F30741FFF7AEFF2846C4F30721CD
S31508005870FFF7A9FF2846E1B2BDE83840FFF7A3BF06
S31508005880FFF7E8BF38B504464D1E15F8011F204638
S3150800589019B9BDE83840FFF796BFFFF794FFF4E75C
S315080058A038B50446B0F88450290AFFF7ADFF2046FC
S315080058B0E9B2FFF7A9FFD4F880307F2B9FBF5A1CA7
S315080058C0C4F880207F22E25438BD0246D0F8800012
S315080058D058B1D2F888300138C2F88000581CC2F88E
S315080058E088000120D35C0B7070470346FBE7F7B5C9
S315080058F00D460DF107010746FFF7E7FF9DF807403C
S31508005900064624022C803846FFF7DFFF9DF807304D
S3150800591030441C432C8003B0F0BDF8B50024042A9B
S3150800592007460E46C0F8804031D90B787E2B31D118
S31508005930013A8B5C7F2B2DD101212046735C00B385
S31508005940002083F020033355013401318A42F5D80B
S31508005950A51E3046A9B2FBF72DFE344414F8022CD6
S3150800596014F8013C43EA0223984216D1002D06DBBF
S315080059702A463146384601F013F9C7F880502846BA
S31508005980F8BD7D2B16BF335501200134DDE74FF0F6
S31508005990FF35F4E76FF00105F1E76FF00205EEE772
S315080059A070B504460E461546FFF7FEFE204646F03D
S315080059B08001FFF708FF20462946FFF704FF204627
S315080059C0BDE87040FFF76CBF37B504460D46FFF7D4
S315080059D0F6FE0DF107012046FFF777FF2946204618
S315080059E0FFF773FFD4F8803033B99DF80700831F9B
S315080059F05842584103B030BD0020FBE737B504468E
S31508005A000D46FFF7DCFE0DF107012046FFF75DFFA7
S31508005A1029462046FFF759FF2B78003B18BF01237C
S31508005A202B70D4F8803033B99DF80700C31F58424D
S31508005A30584103B030BD0020FBE773B504460E4657
S31508005A401546FFF7BCFE0DF107012046FFF73DFF9F
S31508005A5031462046FFF74BFF29462046FFF747FF0A
S31508005A60D4F880303BB99DF80700A0F109035842E5
S31508005A70584102B070BD0020FBE7000070B505462E
S31508005A800024064ED5F88030A34200D870BD295DA3
S31508005A90304600F0F3FE0134F4E700BF0038014059
S31508005AA02DE9F047D2B00246B6490CA8FFF735FFF4
S31508005AB0002840F39D829DF83040631E152B00F2A6
S31508005AC09081DFE813F016008E018E01F7008E0133
S31508005AD061016E018E017D018E012500900157003E
S31508005AE07900C8008E01A301CE012E02720275024A
S31508005AF08502FEF7D3FD2046024621462FA8FFF76A
S31508005B004FFF4F9B0BB1802C4BD152B0BDE8F087AD
S31508005B102022002104A801F0B9F80CA8FFF74FFECF
S31508005B2003A90CA8FFF7D1FE1F2404AD0DF10A0145
S31508005B300CA8FFF7CAFE9DF80A30013C05F8013BA0
S31508005B4003D013B12C9B002BF0D108212FA8FEF708
S31508005B5037FC002405462FAEA54201D100244DE2AC
S31508005B6056F8040B04A901F0E1F8002800F0428277
S31508005B700134F1E7082104A8FEF722FC06462FA8FF
S31508005B80FFF712FE8D212FA8FFF71DFE01212FA872
S31508005B90FFF719FE002504ACAE4206D12FA8FFF781
S31508005BA07FFE2FA8FFF76AFFAFE754F8041B2FA85C
S31508005BB0FFF768FE0135EFE70CA8FFF700FE04AD16
S31508005BC003A90CA8FFF781FEA94600262E9C0CAB5C
S31508005BD01F19384601F088F904F1010A824438464B
S31508005BE0CDF8B8A001F080F92C9C0CAB03EB0A08A1
S31508005BF0013C241A40462C9401F076F901305044B1
S31508005C002E90404601F070F9241A41463846013C68
S31508005C102C94FEF737FC2C9BB24609F8010B01368B
S31508005C201BB1082ED2D14FF0070A2FA8FFF7BCFDEB
S31508005C308E212FA8FFF7C7FD01212FA8FFF7C3FD67
S31508005C40002415F8011B2FA8FFF7BDFDA24504F196
S31508005C500104F6D1A2E704A8FEF7ECFB0546FEF719
S31508005C60C3FB04462FA8FFF79FFD8F212FA8FFF738
S31508005C70AAFD01212FA8FFF7A6FD21462FA8FFF7A9
S31508005C8001FE00240C27A54288D007FB04F60499D8
S31508005C902FA83144FFF7F6FD049B2FA83344997AC1
S31508005CA0FFF791FD049B2FA83344D97AFFF78BFDA4
S31508005CB00134E8E703A8FEF7BDFB0546FEF794FBAB
S31508005CC00DF10A0202A904460DF10600FCF714FDBF
S31508005CD0BDF80800FCF7B4FF8146BDF80A00FCF7DA
S31508005CE0CDFF8046BDF80600FDF726F80746FCF707
S31508005CF0A1FF06462FA8FFF757FD84212FA8FFF717
S31508005D0062FD01212FA8FFF75EFD1FFA89F12FA872
S31508005D10FFF794FD1FFA88F12FA8FFF78FFDB9B298
S31508005D202FA8FFF78BFD31462FA8FFF74CFD4FF63E
S31508005D30FF712FA8FFF782FD4FF6FF712FA8FFF717
S31508005D407DFD00212FA8FFF73EFD21462FA8FFF76E
S31508005D5099FD00240C27A5423FF420AF102207FB2B
S31508005D6004F603980DEB02013044FEF777FB03991E
S31508005D702FA83144FFF786FD04A92FA8FFF782FD57
S31508005D800134E8E77C1300202FA90CA8FFF71CFEB6
S31508005D9000283FF4B1AE9DF8BC00FEF78BFC01204D
S31508005DA0AAE62FA90CA8FFF729FE00283FF4A4AEFF
S31508005DB09DF8BC00003818BF0120FEF73FFCEEE74F
S31508005DC02FAA04A90CA8FFF738FE50B1BDF8BC30BD
S31508005DD0BDF810108F4843EA0141FBF7CFFBFEF7E9
S31508005DE0E7FC002088E60CA8FFF7E9FC04A90CA844
S31508005DF0FFF76BFD2FA90CA8FFF767FD9DF8BC0000
S31508005E00003818BF0120FEF7F9FB75E6002303A842
S31508005E10CDE90333FEF7F2FA054604A8FEF7FCFAC5
S31508005E2004462FA8FFF7C0FC91212FA8FFF7CBFC4B
S31508005E306DB164B12FA80121FFF7C5FC03992FA8FE
S31508005E40FFF720FD04992FA8FFF71CFDA6E6002101
S31508005E502FA8FFF7B8FC00212FA8FFF7B4FC0021F4
S31508005E60D4E004AA03A90DF10A00FCF745FC2FA803
S31508005E70FFF79AFC2FA89221FFF7A5FC2FA801216E
S31508005E80FFF7A1FCBDF810102FA8FFF7D7FC624C4E
S31508005E90BDF80C102FA8FFF7D1FCBDF80A102FA8E3
S31508005EA0FFF7CCFCD4F814142FA889B2FFF7C6FC68
S31508005EB0D4F808142FA889B2FFF7C0FC574B2FA8AF
S31508005EC01968FFF7DDFC564B2FA81968FFF7D8FCB1
S31508005ED0544B2FA81968FFF7D3FC534B2FA8196802
S31508005EE0FFF7CEFC514B2FA81968FFF7C9FC504B9A
S31508005EF02FA81968FFF7C4FC4E4B2FA81968FFF79F
S31508005F00BFFC4D4B2FA81968FFF7BAFC4B4B2FA8BF
S31508005F101968FFF7B5FC4A4B2FA81968FFF7B0FCBC
S31508005F203CE60CA8FFF74BFC04AD03A90CA8FFF749
S31508005F30CCFCA84600272E9C0CAB1E19304600F058
S31508005F40D3FF044404F1010A3046CDF8B8A000F0A6
S31508005F50CBFF2C9B0534053B1B1A2C930CAB03EB90
S31508005F600A0130462E94FEF7A3FA2C9BB94608F888
S31508005F70010B01371BB1082FDDD14FF007092FA8F8
S31508005F80FFF712FC93212FA8FFF71DFC01212FA86C
S31508005F90FFF719FC002415F8011B2FA8FFF713FCBF
S31508005FA04C4504F10104F6D1F8E5FEF7EFFAA3E54E
S31508005FB00CA8FFF704FC04A90CA8FFF786FC2FA978
S31508005FC00CA8FFF782FC9DF8BC00FEF7F9FB93E5E9
S31508005FD00CA8FFF7F4FB04A90CA8FFF776FC2FA979
S31508005FE00CA8FFF772FC9DF8BC00FCF7D6FBD6E6BA
S31508005FF08024F6E62046FEF717FB04462FA8FFF78F
S31508006000D3FB8B212FA8FFF7DEFB21462FA8FFF72E
S31508006010DAFBC3E5DABEDEFE00700040540300205A
S31508006020500300204C0300204803002044030020AE
S31508006030400300203C0300203803002034030020DE
S31508006040300300207E2810B503460D4C13D10122DB
S31508006050002122700B4A11600A490A687F2A0DD866
S31508006060501C086008497F2B8B5407D1FFF718FD91
S315080060700023237002E02278002AEDD110BD00BF6C
S3150800608074130020781300207C1300208368DB0734
S315080060905EBF836843F0010383607047836823F417
S315080060A0E0430B438360836843F40043836070478F
S315080060B0836800F1080243F00803836013681B072E
S315080060C0FCD47047836843F0040383607047806894
S315080060D0C0F38000704708B50246FFF7F3FF104685
S315080060E0FFF7F5FF0028FAD108BD0022134610B5C0
S315080060F001FA02F403321E2A43EA0403F8D1002205
S31508006100036101FA02F40332182A43EA0403F8D1B8
S31508006110C36010BD836823F001038360704743683A
S3150800612043F4807343607047436843F080034360D9
S315080061307047836823F40063836070470139032935
S315080061400BD8DFE801F002040608C06B7047006C44
S315080061507047406C7047806C7047002070478368B2
S3150800616023F0020383607047042970B508D80F2509
S3150800617000235418944204D1013943EA0153836336
S3150800618070BD14F8016DAE403343053DF2E70000DB
S31508006190064A074BD068B3F8E0309BB2B3F5007FE8
S315080061A084BFD36C184300F03500704700200240C6
S315080061B000F7FF1F38B504460D4600F047FC164B9E
S315080061C0B3F8E0309BB2B3F5007F144B19D9144AE3
S315080061D0944216D91A6D42F001021A65258000F01C
S315080061E035FC0D4BB3F8E0309BB2B3F5007F0B4B93
S315080061F00CD90B4A944209D91A6D22F001021A6584
S3150800620038BD1A6942F001021A61E7E71A6922F0F5
S3150800621001021A61F4E700BF00F7FF1F00200240E1
S31508006220FFFF070810B5044600F010FC1A4BB3F838
S31508006230E0309BB2B3F5007F184B1DD9184A94423B
S315080062401AD91A6D42F002021A655C651A6D42F097
S3150800625040021A6500F0FAFB0F4BB3F8E0309BB228
S31508006260B3F5007F0D4B11D90D4A94420ED91A6D1C
S3150800627022F002021A6510BD1A6942F002021A617A
S315080062805C611A6942F040021A61E3E71A6922F072
S3150800629002021A61EFE700BF00F7FF1F0020024065
S315080062A0FFFF07082DE9F0414FF00F0C002507689E
S315080062B0466843FA05F4E4071CD5072D94BFBE4685
S315080062C0B646ACB24FEA84048ABF203CA4B2A4B254
S315080062D00CFA04F82EEA080804F1020E02FA0EFE79
S315080062E001FA04F44EEA040444EA0804072D94BFAC
S315080062F0274626460135102DDBD107604660BDE8E6
S31508006300F0810000062824D8DFE800F004090E13FF
S31508006310181D2000104B1868C0F3406070470E4BDC
S315080063201868C0F3C06070470B4B1868C0F340701C
S315080063307047094B1868C0F340407047064B186809
S31508006340C0F340007047044B186AF9E7024B586AD5
S31508006350F6E70020704700BF00100240024608B565
S315080063601046FFF7CFFF0028FAD008BD06282AD81E
S31508006370DFE800F0040A0F14191E2400124A1368F5
S3150800638043F08073136070470F4A136843F08063C5
S31508006390F8E70D4A136843F08053F3E70A4A13688F
S315080063A043F48033EEE7084A136843F00103E9E74C
S315080063B0054A136A43F0010313627047024A536A97
S315080063C043F001035362704700100240034A5368C2
S315080063D023F0030303435360704700BF00100240D5
S315080063E0034A536823F4701343EA804353607047A3
S315080063F000100240034A536823F4803343EA0043FB
S315080064005360704700100240034A536823F4404320
S3150800641043EA80335360704700100240034A5368CA
S3150800642023F4605343EAC0235360704700100240C8
S31508006430034A536823F4E06343EA00235360704732
S3150800644000100240034A536823F0F00343EA00139E
S31508006450536070470010024008B50420FFF786FF16
S31508006460FFF77CFF0020FFF7B1FFFFF7EBFF0320E4
S31508006470FFF7CAFF0420FFF7DBFF0020FFF7CEFF78
S315080064800E4A0120536843F48003536000F0BCFAB7
S315080064900A20FFF7A5FF0020FFF7ACFFFFF766FF0E
S315080064A0FFF75CFF0220FFF791FF054B054A0649F7
S315080064B01360064A1160064A136008BD00100240C0
S315080064C0006CDC026007002000366E0168070020B9
S315080064D06407002014230022013903FB01039A6094
S315080064E0DA601A615A610F23426889008B401343A8
S315080064F04360704714230139594308300B5823F475
S3150800650040530B500B5813430B5070471423013953
S31508006510594308300B5823F440630B500B58134368
S315080065200B50704714230139594308300B5823F48C
S3150800653040730B500B5813430B5070471423013903
S31508006540594308300B5843F080030B507047142307
S315080065500139594308300B5823F010030B50704784
S3150800656014230139594308300B5843F010030B50D4
S31508006570704714230139594308300B5843F0020376
S315080065800B50704714230139594308300B5823F030
S3150800659002030B50704714230139594308300B582E
S315080065A043F001030B50704714230139594308304F
S315080065B00B5823F001030B5070471423013903FBD2
S315080065C001008368DB0758BF02617047142301394D
S315080065D003FB01008368DB0758BF42617047142339
S315080065E0013959430C300A50704701617047090454
S315080065F001617047806808407047036843F00103EB
S3150800660003607047036823F001030360704703685B
S3150800661043F4807303607047036843F400730360B0
S315080066207047490041F4804181607047436823F010
S315080066303F039BB219434160704701617047C369C4
S3150800664043F40043C3617047C36903F470430B43C3
S31508006650C36170470162704742EA4102D2B20261E1
S31508006660704700004CF6CC42014B1A60704700BFD9
S3150800667000300040024BD868C0F34000704700BFA6
S315080066800030004008B5C0F3D313B3F5807F4FEA56
S31508006690401232D8802B14D90623120A1949C86821
S315080066A0C007FCD445F2555008604B60FFF7E2FF7F
S315080066B00028FBD145F25553C2F30B020B608A60E2
S315080066C008BD402B02D90523D209E7E7202B02D9BA
S315080066D004239209E2E7102B03D9032320F078421A
S315080066E0DCE7082B02D902231209D7E7042B8BBF54
S315080066F001230023D2089208D0E7062340F6FF724A
S31508006700CCE700BF003000404AF6AA22014B1A60C7
S31508006710704700BF003000400A4B98420FD003F57F
S315080067207443984204D0A3F57843984204D070473E
S315080067304FF4C67000F0C6B840F20E20FAE740F2F1
S315080067400F20F7E7003C0040036843F0400303606E
S315080067507047036843F400730360436823F0040337
S3150800676043607047036843F4807303607047436867
S3150800677043F0020343607047436823F00203436013
S315080067807047436843F0010343607047436823F04A
S3150800679001034360704730B50468049D04F441540E
S315080067A02C43039D2C431C43144343680C4344F079
S315080067B0040443F0040343600460002030BD10B5B0
S315080067C004681A4324F45C740A432243026010BD29
S315080067D0036801F4407123F44073036003681943A6
S315080067E001607047036843F001030360704743681C
S315080067F023F07003436043680B434360704781622C
S315080068007047C16270470000064A074B90421B68F2
S3150800681004BF064B1B6801EB43034900B3FBF1F3C6
S31508006820836070470038014068070020640700202D
S31508006830C36808290CBF23F4805343F48053C3600C
S315080068407047036923F440530B4303617047C368D9
S3150800685023F4C0630B43C3607047C36823F00C037B
S315080068600B43C3607047436923F440730B4343618A
S315080068707047C36843F40053C360704738B504468D
S315080068800D4600F00EF829462046BDE8384000F0CF
S3150800689000B8C1F30801416070474068C0F30800BA
S315080068A0704703681B06FCD570470122430903F1AC
S315080068B0804303F50433196800F01F0082400A4339
S315080068C01A6070470122430903F1804303F5043334
S315080068D0196800F01F00824011431960196821EAFF
S315080068E002021A607047000001290FD0022918D049
S315080068F059B90E4BD3F808240243C3F80824D3F831
